:10000000B8C00000D1C00000CFC00000CDC00000CB
:10001000CBC00000C9C00000C7C00000C5C00000C0
:10002000C3C00000B6C10000B2C20000D1C20000CF
:10003000BBC00000B9C00000B7C00000B5C00000E0
:10004000B3C00000B1C00000AFC00000ADC00000F0
:10005000ABC00000A9C00000A7C00000A5C0000000
:10006000A3C00000A1C000009FC000009DC0000010
:100070009BC0000099C0000097C0000095C0000020
:1000800093C0000091C000008FC000008DC0000030
:100090008BC0000089C0000087C0000085C0000040
:1000A00083C0000081C000007FC00000000100008C
:1000B000EE001200020000000122002100001201E7
:1000C000090022000022012B000300004D01040161
:1000D0000309045101120203090465010A01C13632
:1000E00000000021260107000000008080001201AE
:1000F000100100000040943CCA2B000101020001E5
:1001000009022200010100803209040000010300FD
:100110000000092111010001222B00070581034085
:10012000000A05010905A1010901A10009300931F1
:10013000150026FF00750895028102C00509190106
:10014000290815002501750195088102C0040309DD
:100150000412034E0069006E00740065006E0064B6
:10016000006F0000000A0353004E004500530000DA
:10017000000011241FBECFEFDAE0DEBFCDBF11E0DB
:10018000A0E0B1E0E0E7F8E002C005900D92A630F3
:10019000B107D9F711E0A6E0B1E001C01D92AE3081
:1001A000B107E1F787D162C32BCF8FB190E2292F3E
:1001B0002A95F1F7889A9A95F1F7889880710895B1
:1001C000DF92EF92FF920F931F93CF93DF93899A61
:1001D00080E48A95F1F78998C0E0D0E081E0E82ECC
:1001E000F12CDD24DA9400E81C2FDFDF482F882370
:1001F00071F02091020130910301C7010C2E02C061
:10020000880F991F0A94E2F7822B932B0FC020913D
:10021000020130910301C7010C2E02C0880F991F03
:100220000A94E2F78095909582239323909303019B
:1002300080930201153009F456C0163080F4123054
:10024000B1F1133030F4112301F1113009F094C0F1
:1002500024C01330C1F1143009F08EC03FC01830F3
:1002600009F45FC0193038F4163009F449C017306A
:1002700009F082C04AC01A3009F467C01A3008F485
:1002800059C01B3009F078C06AC090E0442309F4DB
:1002900091E080910D018E7F6CC090E0442309F4C1
:1002A00091E0990F990F80910D018B7F62C090E0D2
:1002B000442309F491E09295990F990F907C8091D5
:1002C0000D018F7B56C090E0442309F491E097958F
:1002D0009927979580910D018F774BC0442351F456
:1002E00010920C0149C0442309F046C080910C01D2
:1002F000882319F400930C013FC0D0920C013CC03C
:10030000442349F410920B0137C04423A9F580918E
:100310000B01882319F400930B012EC0D0920B011E
:100320002BC090E0442309F491E0990F80910D01D6
:100330008D7F1FC090E0442309F491E0990F990F3D
:10034000990F80910D01877F14C090E0442309F438
:1003500091E09295907F80910D018F7E0AC090E090
:10036000442309F491E09295990F907E80910D01BC
:100370008F7D892B80930D012196C031D10509F025
:1003800033CFDF91CF911F910F91FF90EF90DF90CE
:1003900008951F920F920FB60F9211242F933F933F
:1003A0008F939F9380910801813079F593B191707B
:1003B00080910001981749F190930001809100010C
:1003C000882319F18091060190910701892BD1F0C2
:1003D0002091020130910301809106019091070163
:1003E00082239323892B11F42A9801C02A9A8091A1
:1003F000060190910701880F991F90930701809340
:10040000060103C02A981092080193B1927080915E
:100410000101981791F190930101809101018823C6
:1004200061F181E090E0909307018093060181E003
:10043000809308018091060190910701892BD1F0EA
:1004400020910201309103018091060190910701F2
:1004500082239323892B11F42A9801C02A9A809130
:10046000060190910701880F991F909307018093CF
:10047000060103C02A98109208019F918F913F9125
:100480002F910F900FBE0F901F90189520982198D4
:10049000229A809A819A8298E8E6F0E080818160D1
:1004A0008083EBE6F0E080818160808380818260E0
:1004B000808308951F9380E880936100109261000B
:1004C000569A5E9817D02DD08823E9F380E197E201
:1004D00020E931E0F9013197F1F70197D9F7B6D169
:1004E000F894D4DF789410E4812F8A95F1F768DED0
:1004F0001BD0FACF81E08093D70080EA8093D800A8
:1005000082E189BD09B400FEFDCF80E98093D80067
:100510001092E000109209018CE08093E200789440
:10052000089580910901089580910901882369F156
:100530002FB7F89481E08093E9009091E4009E5CED
:1005400031E08091E80085FF12C080910B0180931B
:10055000F10080910C018093F10080910D01809356
:10056000F1008AE38093E8002FBF80E008952FBF59
:1005700080910901882349F08091E400891729F0CE
:100580002FB7F8943093E900DCCF8FEF08951F92D6
:100590000F920FB60F9211248F938091E100109269
:1005A000E10083FF0FC01092E90081E08093EB002F
:1005B0001092EC0082E38093ED0088E08093F000DD
:1005C000109209018F910F900FBE0F901F901895F8
:1005D0001F920F920FB60F9211240F931F932F9318
:1005E0003F934F935F936F937F938F939F93AF93BB
:1005F000BF93EF93FF931092E9008091E80083FF8F
:100600000FC14091F1003091F1008091F100682F0D
:1006100070E02091F100922F80E0682B792B80917F
:10062000F100A82FB0E02091F100922F80E0A82BDC
:10063000B92B1091F1000091F10082EF8093E80056
:10064000363009F05AC023EB30E0A9014550504044
:10065000F9013797859194918617970701F5FA016B
:10066000859194918A179B07D1F49A012E5F3F4F91
:10067000F901659174912E5F3F4FF9014491212F4B
:1006800030E0902F80E0282B392B2F3F310519F0D7
:1006900010F02FEF30E0241758F4422F09C0295FE3
:1006A0003F4F495F5F4FF0E0243E3F0789F6B8C0F7
:1006B0005EEF8091E800282F30E0C90185709070CE
:1006C000892BB9F322FDAFC0342F413408F030E458
:1006D000232FCB0106C0FC010196E491E093F100C9
:1006E00021502223C1F7630F711D431B5093E80073
:1006F0004423F9F63034E9F296C0353061F48EEFD8
:100700008093E8008091E80080FFFCCF862F80680E
:100710008093E30088C0393051F5442309F03DC08F
:10072000609309018EEF8093E8008DED90E021E069
:100730002093E900FC010196E491E093EB00EE23A5
:1007400069F0AC014F5F5F4FFC0184918093EC0036
:10075000CA010196FA0134913093ED002F5F2530E4
:1007600039F78EE18093EA001092EA005CC03830DD
:1007700049F4403891F48091E80080FFFCCF8091EB
:10078000090132C0332349F48091E80080FFFCCF97
:100790001092F1001092F1003FC0AB2B09F040C065
:1007A000413A29F5313079F48091E80080FFFCCF9F
:1007B000E3EEF0E084918093F100319680E0EB3E2F
:1007C000F807C1F729C0323039F48091E80080FF82
:1007D000FCCF80910A0108C0333011F58091E80008
:1007E00080FFFCCF809104018093F10015C041325D
:1007F000B9F4393041F48091E80082FFFCCF8BEFEF
:100800008093E80009C03A3019F470930A0104C0DB
:100810003B3031F4609304018EEF8093E80003C015
:1008200081E28093EB00FF91EF91BF91AF919F9197
:100830008F917F916F915F914F913F912F911F9178
:100840000F910F900FBE0F901F9018958BE091E0C5
:100850006BEE70E043E050E000C0FB01DC0102C041
:1008600005900D9241505040D8F70895F894FFCF6D
:060870000303FFFF01007D
:00000001FF
