:10000000C3C00000DCC00000DAC00000D8C000009F
:10001000D6C00000D4C00000D2C00000D0C0000094
:10002000CEC00000CCC00000F3C1000012C200002E
:10003000C6C00000C4C00000C2C00000C0C00000B4
:10004000BEC00000BCC00000BAC00000B8C00000C4
:10005000B6C00000B4C00000B2C00000B0C00000D4
:10006000AEC00000ACC00000AAC00000A8C00000E4
:10007000A6C00000A4C00000A2C00000A0C00000F4
:100080009EC000009CC000009AC0000098C0000004
:1000900096C0000094C0000092C0000090C0000014
:1000A0008EC000008CC000008AC00000850179016C
:1000B0006D0166015A01530147013B0120012F01E7
:1000C000910121260107000000008080000001004E
:1000D000006F011200020000220122002100003402
:1000E00001090022000044012B000300001E01044E
:1000F000010309040A011202030904FE000A0A03AB
:1001000053004E0045005300000012034E006900EA
:100110006E00740065006E0064006F000000040350
:1001200009040902220001010080320904000001D3
:1001300003000000092111010001222B00070581A5
:100140000340000A05010905A1010901A1000930C8
:100150000931150026FF00750895028102C00509C6
:100160001901290815002501750195088102C012A1
:1001700001100100000040943CCA2B000101020064
:100180000101C1360000000011241FBECFEFDAE0EC
:10019000DEBFCDBF11E0A0E0B1E0E0E9F8E002C0D1
:1001A00005900D92A230B107D9F721E0A2E0B1E0AD
:1001B00001C01D92A730B207E1F702D067C320CF7C
:1001C00080E88093610010926100569AC0D0D6D02A
:1001D0008823E9F32FEF83ED90E321508040904096
:1001E000E1F700C00000CDD0F89422982098219823
:1001F0007894D1E01FEFC0E8199BFECF1999FECF8C
:1002000083B182FB882780F98D279091060180FBBE
:1002100090F9909306011899FECF22E030E0F901A1
:100220003197189BFECF1899FECF83B18470319718
:10023000EB30F10588F02031310559F4A9D0DCCF3D
:1002400091E0811190E08091060190FB83F9809309
:1002500006012F5F3F4FE3CFEA5AFF4F08C391E0FB
:10026000811190E08091060190FB84F98093060152
:100270002F5F3F4FD4CF91E0811190E08091060134
:1002800090FB81F9809306012F5F3F4FC8CF81110A
:10029000E0CF80910401882309F44FC0109304013A
:1002A0002F5F3F4FBCCF811148C0109204012F5FD8
:1002B0003F4FB5CF8111CDCF80910501882309F43F
:1002C00041C0109305012F5F3F4FA9CF81113AC064
:1002D000109205012F5F3F4FA2CF91E0811190E076
:1002E0008091060190FB87F9809306012F5F3F4FB5
:1002F00096CF91E0811190E08091060190FB86F904
:10030000809306012F5F3F4F8ACF91E0811190E0EB
:100310008091060190FB82F9809306012F5F3F4F89
:100320007ECF91E0811190E08091060190FB85F9EC
:10033000809306012F5F3F4F72CFC09304012F5F60
:100340003F4F6DCFC09305012F5F3F4F68CF81E0D6
:100350008093D70080EA8093D80082E189BD09B4F8
:1003600000FEFDCF80E98093D8001092E00010924B
:1003700003018CE08093E20078940895809103015A
:10038000089543E050E06AEC70E084E091E075C2CB
:10039000809103018823D1F18FB7F89491E0909375
:1003A000E9002091E4002E5C9091E80095FD1CC0CE
:1003B0008FBF80910301882349F18091E4002817C1
:1003C00029F131E009C08FBF809103018823F1F04A
:1003D0008091E4002817D1F08FB7F8943093E900AA
:1003E0009091E80095FFEFCF909104019093F10078
:1003F000909105019093F100909106019093F10086
:100400009AE39093E8008FBF80E008958FEF0895FE
:100410001F920F920FB60F9211248F938091E100DB
:100420001092E10083FF0FC01092E90081E08093F9
:10043000EB001092EC0082E38093ED0088E0809363
:10044000F000109203018F910F900FBE0F901F903C
:1004500018951F920F920FB60F9211242F933F936E
:100460004F935F936F937F938F939F93AF93BF93BC
:10047000CF93DF93EF93FF931092E9008091E80010
:1004800083FF6BC0E091F1006091F1002091F100D9
:100490008091F10030E0382B8091F1004091F10023
:1004A00090E0DC01B42BAD017091F100A091F1005E
:1004B00082EF8093E8006630B9F0653009F4E0C05F
:1004C000693009F460C0683009F4C1C06111C1C06D
:1004D0008091E80080FFFCCF1092F1001092F100B3
:1004E0008EEF8093E8003CC0EDECF0E085919491B4
:1004F0008217930709F47AC184ED90E0FC01C5915D
:10050000D4912C173D0709F47CC10796FC01C591D5
:10051000D4912C173D0709F47DC10796FC01C591C4
:10052000D4912C173D0709F47EC10796FC01C591B3
:10053000D4912C173D0709F47FC10796FC01C591A2
:10054000D4912C173D0709F480C10796FC01C59191
:10055000D4912C173D0709F4B5C081E28093EB00DC
:10056000FF91EF91DF91CF91BF91AF919F918F91CB
:100570007F916F915F914F913F912F910F900FBE9F
:100580000F901F901895E11164C0209303018EEF26
:100590008093E80081E08093E900E1E8F1E0E491F4
:1005A000E093EB00EE2309F459C1E2E8F1E0E491B5
:1005B000E093EC00E3E8F1E0E491E093ED0024E85F
:1005C00031E082E08093E900C9010196F90144918C
:1005D0004093EB00442351F0FC0184918093EC00A4
:1005E000C9010396319624912093ED0023E02093D6
:1005F000E9009C012F5F3F4FFC0144914093EB00C9
:10060000442359F0F90124912093EC009C012D5FC3
:100610003F4F319684918093ED0084E08093E90010
:10062000A9014F5F5F4FF90184918093EB0088230C
:1006300041F0FA0144914093EC00319624912093CB
:10064000ED008EE18093EA001092EA0089CFE03855
:1006500011F1452B09F081CFE13A09F472C0E13282
:1006600009F07BCF693019F16A3009F4FAC06B30B8
:1006700009F073CF209300018EEF8093E80070CFD4
:100680008EEF8093E8008091E80080FFFCCF206827
:100690002093E30065CF8091E80080FFFCCF80913C
:1006A00003018093F1008EEF8093E80059CF809191
:1006B000E80082FFFCCF8BEF8093E8008EEF809301
:1006C000E8004ECFFC013296259134914217530732
:1006D00009F043CFFC01349645915491FC013696C4
:1006E0002491872F90E09A2B8F3F910519F010F0FD
:1006F0008FEF90E0821708F4282F6EEF8091E800CA
:10070000982F9570D9F382FD2BCF322F213408F426
:1007100068C030E4FA01832F94919093F1008150E6
:1007200031968111F9CF8FEF830F90E00196480F3A
:10073000591F231B6093E8002111E0CF3034F1F200
:100740000FCF613091F0623009F43FC0633009F09F
:1007500004CF8091E80080FFFCCF8091000180935E
:10076000F1008EEF8093E800FBCE8091E80080FFDF
:10077000FCCFE2ECF0E0E491E093F100E3ECF0E098
:10078000E491E093F100E4ECF0E0E491E093F10017
:10079000E5ECF0E0E491E093F100E6ECF0E0E491C8
:1007A000E093F100E7ECF0E0E491E093F100E8EC95
:1007B000F0E0E491E093F100E9ECF0E0E491E09303
:1007C000F1008EEF8093E800CBCE8091E80080FFAF
:1007D000FCCF809102018093F1008EEF8093E800BE
:1007E000BFCE211197CF6093E800BACEEFECF0E0D6
:1007F000859194918417950709F07ECE8DEC90E059
:1008000069CFFC013296C591D4914C175D0709F070
:100810007CCE60CFFC013296C591D4914C175D0718
:1008200009F07BCE57CFFC013296C591D4914C177D
:100830005D0709F07ACE4ECFFC013296C591D49176
:100840004C175D0709F079CE45CFFC013296C59172
:10085000D4914C175D0709F078CE3CCF22E831E007
:10086000B0CE309302018EEF8093E80079CEEE0F88
:10087000FF1F0590F491E02D0994FB01DC0102C0FB
:1008800005900D9241505040D8F70895F894FFCF4D
:02089000010065
:00000001FF
