:10000000D0C00000E9C00000E7C00000E5C000006B
:10001000E3C00000E1C00000DFC00000DDC0000060
:10002000DBC000009CC10000A1C20000C0C20000F3
:10003000D3C00000D1C00000CFC00000CDC0000080
:10004000CBC00000C9C00000C7C00000C5C0000090
:10005000C3C00000C1C00000BFC00000BDC00000A0
:10006000BBC00000B9C00000B7C00000B5C00000B0
:10007000B3C00000B1C00000AFC00000ADC00000C0
:10008000ABC00000A9C00000A7C00000A5C00000D0
:10009000A3C00000A1C000009FC000009DC00000E0
:1000A0009BC0000099C0000097C0000045014D01B1
:1000B00055015D0168018F016B018F016E017601B1
:1000C0007E01860145014D0155015D0165019D01DE
:1000D000A401A7016E0176017E01860100010000E6
:1000E0001E01120002000030012200210000420126
:1000F000090022000052012B000300007D010401D1
:100100000309048101120203090495010A01C136A1
:10011000000000212601070000000080800012017D
:10012000100100000040943CCA2B000101020001B4
:1001300009022200010100803209040000010300CD
:100140000000092111010001222B00070581034055
:10015000000A05010905A1010901A10009300931C1
:10016000150026FF00750895028102C005091901D6
:10017000290815002501750195088102C0040309AD
:100180000412034E0069006E00740065006E006486
:10019000006F0000000A0353004E004500530000AA
:1001A000000011241FBECFEFDAE0DEBFCDBF11E0AB
:1001B000A0E0B1E0ECE5F8E002C005900D92A630B9
:1001C000B107D9F711E0A6E0B1E001C01D92A0315E
:1001D000B107E1F760D140C313CF8FB190E29A9598
:1001E000F1F7889A90E29A95F1F7889880710895CE
:1001F000DF92EF92FF920F931F93CF93DF93899A31
:1002000080E48A95F1F7899800E010E0D0E8EE24C8
:10021000E394F12CDD24DA94E0DF402F50E08823D2
:10022000C9F02091000130910101F701002E02C0B8
:10023000EE0FFF1F0A94E2F72E2B3F2B30930101A4
:10024000209300014C30510508F069C0FA01EA5AC8
:10025000FF4FF3C2E0910001F09101019701002EE0
:1002600002C0220F331F0A94E2F7209530952E2307
:100270003F2330930101209300014C30510508F0D9
:100280004EC0FA01EE59FF4FD8C291E0811190E0C3
:1002900080910F0190FB80F940C091E0811190E0C6
:1002A00080910F0190FB82F938C091E0811190E0BC
:1002B00080910F0190FB86F930C091E0811190E0B0
:1002C00080910F0190FB87F928C010920E0127C082
:1002D000D0930E0124C0D0930D0121C091E0811173
:1002E00090E080910F0190FB81F917C091E081119E
:1002F00090E080910F0190FB83F90FC091E0811194
:1003000090E080910F0190FB84F907C091E081118A
:1003100090E080910F0190FB85F980930F010F5FB2
:100320001F4F0031110509F077CFDF91CF911F9159
:100330000F91FF90EF90DF90089580910E01882338
:1003400039F2D0920E01EBCF10920D01E8CF8091DF
:100350000D01882309F4BFCFD0920D01E0CF1F9289
:100360000F920FB60F9211242F933F938F939F9369
:10037000809106018823A9F183B1817080930C01DB
:1003800090910C0180910301981759F180910C0113
:100390008093030180910301882319F18091070163
:1003A00090910801892BD1F0809100019091010179
:1003B000209107013091080182239323892B11F4A6
:1003C0002A9801C02A9A8091070190910801880F0C
:1003D000991F909308018093070103C02A981092F7
:1003E000060183B1827080930B0190910B01809183
:1003F0000201981799F180910B018093020180917D
:100400000201882359F181E090E0909308018093E4
:100410000701809306018091070190910801892BC3
:10042000D1F080910001909101012091070130915C
:10043000080182239323892B11F42A9801C02A9A58
:100440008091070190910801880F991F90930801EE
:100450008093070103C02A98109206019F918F9103
:100460003F912F910F900FBE0F901F9018952098DD
:100470002198229A809A819A8298E8E6F0E0808119
:1004800081608083EBE6F0E0808181608083808101
:1004900082608083089580E88093610010926100FB
:1004A000569A5E9816D02CD08823E9F32FEF83ED6F
:1004B00090E3215080409040E1F700C00000B5D1AA
:1004C000F894D5DF789420E42A95F1F791DE1BD0DB
:1004D000FACF81E08093D70080EA8093D80082E150
:1004E00089BD09B400FEFDCF80E98093D800109249
:1004F000E000109209018CE08093E2007894089566
:1005000080910901089580910901882369F12FB72D
:10051000F89481E08093E9009091E4009E5C31E0E2
:100520008091E80085FF12C080910D018093F10059
:1005300080910E018093F10080910F018093F10072
:100540008AE38093E8002FBF80E008952FBF809159
:100550000901882349F08091E400891729F02FB719
:10056000F8943093E900DCCF8FEF08951F920F923B
:100570000FB60F9211248F938091E1001092E10049
:1005800083FF0FC01092E90081E08093EB0010928E
:10059000EC0082E38093ED0088E08093F0001092FD
:1005A00009018F910F900FBE0F901F9018951F9209
:1005B0000F920FB60F9211240F931F932F933F9317
:1005C0004F935F936F937F938F939F93AF93BF935B
:1005D000EF93FF931092E9008091E80083FF0FC131
:1005E0004091F1003091F1008091F100682F70E0AE
:1005F0002091F100922F80E0682B792B8091F100FF
:10060000A82FB0E02091F100922F80E0A82BB92B09
:100610001091F1000091F10082EF8093E8003630F4
:1006200009F05AC023EE30E0A90145505040F901CD
:100630003797859194918617970701F5FA0185916F
:1006400094918A179B07D1F49A012E5F3F4FF901CD
:10065000659174912E5F3F4FF9014491212F30E055
:10066000902F80E0282B392B2F3F310519F010F007
:100670002FEF30E0241758F4422F09C0295F3F4F75
:10068000495F5F4FF1E024313F0789F6B8C05EEF64
:100690008091E800282F30E0C90185709070892B87
:1006A000B9F322FDAFC0342F413408F030E4232FDA
:1006B000CB0106C0FC010196E491E093F1002150CA
:1006C0002223C1F7630F711D431B5093E80044239D
:1006D000F9F63034E9F296C0353061F48EEF80934C
:1006E000E8008091E80080FFFCCF862F806880932F
:1006F000E30088C0393051F5442309F03DC06093D0
:1007000009018EEF8093E8008DE091E021E02093D5
:10071000E900FC010196E491E093EB00EE2369F01F
:10072000AC014F5F5F4FFC0184918093EC00CA01E4
:100730000196FA0134913093ED002F5F253039F79F
:100740008EE18093EA001092EA005CC0383049F4F0
:10075000403891F48091E80080FFFCCF809109013E
:1007600032C0332349F48091E80080FFFCCF10921F
:10077000F1001092F1003FC0AB2B09F040C0413AAC
:1007800029F5313079F48091E80080FFFCCFE3E176
:10079000F1E084918093F100319681E0EB31F8072C
:1007A000C1F729C0323039F48091E80080FFFCCFD6
:1007B00080910A0108C0333011F58091E80080FF74
:1007C000FCCF809104018093F10015C04132B9F44F
:1007D000393041F48091E80082FFFCCF8BEF8093A9
:1007E000E80009C03A3019F470930A0104C03B30A4
:1007F00031F4609304018EEF8093E80003C081E23E
:100800008093EB00FF91EF91BF91AF919F918F91FA
:100810007F916F915F914F913F912F911F910F9118
:100820000F900FBE0F901F9018958DE091E06BE137
:1008300071E043E050E007C00895EE0FFF1F059000
:10084000F491E02D0994FB01DC0102C005900D92AA
:0C08500041505040D8F70895F894FFCFB5
:06085C00FFFF0303010091
:00000001FF
