:10000000B8C00000D1C00000CFC00000CDC00000CB
:10001000CBC00000C9C00000C7C00000C5C00000C0
:10002000C3C00000D0C000008CC20000ABC2000002
:10003000BBC00000B9C00000B7C00000B5C00000E0
:10004000B3C00000B1C00000AFC00000ADC00000F0
:10005000ABC00000A9C00000A7C00000A5C0000000
:10006000A3C00000A1C000009FC000009DC0000010
:100070009BC0000099C0000097C0000095C0000020
:1000800093C0000091C000008FC000008DC0000030
:100090008BC0000089C0000087C0000085C0000040
:1000A00083C0000081C000007FC00000000100008C
:1000B000EE001200020000000122002100001201E7
:1000C000090022000022012B000300004D01040161
:1000D0000309045101120203090465010A01C13632
:1000E00000000021260107000000008080001201AE
:1000F000100100000040943CCA2B000101020001E5
:1001000009022200010100803209040000010300FD
:100110000000092111010001222B00070581034085
:10012000000A05010905A1010901A10009300931F1
:10013000150026FF00750895028102C00509190106
:10014000290815002501750195088102C0040309DD
:100150000412034E0069006E00740065006E0064B6
:10016000006F0000000A0353004E004500530000DA
:10017000000011241FBECFEFDAE0DEBFCDBF11E0DB
:10018000A0E0B1E0E8E0FAE002C005900D92A230F4
:10019000B107D9F711E0A2E0B1E001C01D92A9308A
:1001A000B107E1F74CD12EC42BCF2298209A219A87
:1001B000E8E6F0E0808181608083EBE6F0E080811A
:1001C0008160808308951F920F920FB60F921124C1
:1001D0000F931F932F933F934F935F936F937F934F
:1001E0008F939F93AF93BF93EF93FF9383B18170EE
:1001F000809305019091050180910001981709F401
:1002000094C08091050180930001809102018823B0
:1002100009F08BC080910501882309F086C080E435
:100220009FE10197F1F781E080930201299A80E430
:100230008A95F1F7299880E28A95F1F78091080173
:10024000082F0170382F369536953170482F42951A
:10025000469546954170A82FAA1FAA27AA1F682F66
:1002600066956170582F5695569556955170E82FA2
:10027000E295E170782F7295769571701091060174
:10028000B091070121E0F0E28F2F8A95F1F7289ACB
:100290008F2F8A95F1F793B194702898822F81500F
:1002A000853009F4ABC0863008F059C0823009F4BB
:1002B00097C0833008F070C0882309F498C081305B
:1002C00009F446C0203110F42F5FDECF8091080181
:1002D0008A7F3170330F330F802B832B417042950F
:1002E000440F440F407C8F73A795AA27A795842BB2
:1002F0008A2B6170660F857F5170550F550F550F12
:10030000862B852BE170E295E07F8F7C7170729572
:10031000770F707E8E2B872B809308011093060138
:10032000B093070110920201CCD0FF91EF91BF91E1
:10033000AF919F918F917F916F915F914F913F917D
:100340002F911F910F910F900FBE0F901F90189536
:1003500030E0992309F0B8CF31E02F5F95CF883096
:1003600089F1893068F4863041F1873009F0AACFED
:10037000992309F0A7CF112309F45EC01FEFA2CF84
:100380008A3039F18A3008F041C050E0992309F0F1
:100390009BCF51E02F5F78CF833041F0843009F05C
:1003A00091CF9923E9F5B0E02F5F6ECFA0E09923BC
:1003B00009F08ACFA1E02F5F67CF9923B1F510E054
:1003C0002F5F62CF60E0992309F07ECF61E02F5F5D
:1003D0005BCFE0E0992309F077CFE1E02F5F54CFC6
:1003E00040E0992309F070CF41E02F5F4DCF00E04E
:1003F000992309F069CF01E02F5F46CF992309F0D7
:1004000061CFBB23B9F4B0E82F5F3ECF8B3009F04A
:1004100059CF70E0992309F057CF71E02F5F34CFA7
:10042000B0E8203108F450CF51CF10E8203108F463
:100430004BCF4CCFBFEF46CF10E82F5F25CF80E8E2
:100440008093610010926100569A5E9820D036D059
:100450008823E9F380E090E020E931E0F901319769
:10046000F1F7019647E280319407C1F7BBD2F894C7
:100470009CDE789420E137E240E951E0CA0101971F
:10048000F1F721503040D1F720E137E2F7CF81E09A
:100490008093D70080EA8093D80082E189BD09B4B7
:1004A00000FEFDCF80E98093D8001092E00010920A
:1004B00003018CE08093E200789408958091030119
:1004C0000895809103018823D1F19FB7F89481E0CA
:1004D0008093E9002091E4008091E80085FD1DC033
:1004E0009FBF80910301882351F12E5C8091E4002D
:1004F000821729F131E009C09FBF80910301882351
:10050000F1F08091E4008217D1F09FB7F894309316
:10051000E9008091E80085FFEFCF8091060180938C
:10052000F100809107018093F10080910801809390
:10053000F1008AE38093E8009FBF80E008958FEF89
:1005400008951F920F920FB60F9211248F938091EE
:10055000E1001092E10083FF0FC01092E90081E0FA
:100560008093EB001092EC0082E38093ED0088E032
:100570008093F000109203018F910F900FBE0F90A7
:100580001F9018951F920F920FB60F9211240F9380
:100590001F932F933F934F935F936F937F938F930B
:1005A0009F93AF93BF93CF93DF93EF93FF931092FB
:1005B000E9008091E80083FF75C0E091F10030917F
:1005C000F1008091F100482F50E02091F100922F2E
:1005D00080E0482B592B8091F100682F70E020912A
:1005E000F100922F80E0682B792B0091F10010919F
:1005F000F10082EF8093E8003630C1F0353009F425
:10060000EDC0393009F466C0383009F4CDC0332369
:1006100009F0CCC08091E80080FFFCCF1092F1007F
:100620001092F1008EEF8093E8003FC0ACEAB0E09A
:10063000FD01859194914817590709F441C1FD01C5
:100640003796859194914817590709F443C1EAEB0D
:10065000F0E0859194914817590709F447C1E1ECFE
:10066000F0E0859194914817590709F44BC128ECA3
:1006700030E0F901859194914817590709F44FC169
:10068000295F3F4FF901859194914817590709F463
:1006900050C1295F3F4FF90185919491481759073F
:1006A00009F4B4C081E28093EB00FF91EF91DF91F8
:1006B000CF91BF91AF919F918F917F916F915F91FA
:1006C0004F913F912F911F910F910F900FBE0F905F
:1006D0001F901895EE2309F069C0409303018EEF37
:1006E0008093E80081E08093E900EDEDF0E08491F3
:1006F0008093EB00882341F0319684918093EC0045
:10070000319684918093ED00319682E08093E900E8
:10071000AF014F5F5F4F84918093EB00882371F0AE
:100720009A012F5F3F4FFA0184918093EC00A90159
:100730004F5F5F4FF90184918093ED0083E08093D8
:10074000E9009A012F5F3F4FFA0184918093EB00FB
:10075000882371F0A9014F5F5F4FF9018491809365
:10076000EC009A012F5F3F4FFA0184918093ED00D6
:1007700084E08093E900A9014F5F5F4FF901849104
:100780008093EB00882351F0FA0184918093EC0070
:100790004F5F5F4FFA0184918093ED008EE180936B
:1007A000EA001092EA0081CFE03821F1672B09F0CE
:1007B00079CFE13A09F4C7C0E13209F073CF39309B
:1007C00009F470C03A3009F407C13B3009F06ACF30
:1007D000409301018EEF8093E80067CF8EEF809306
:1007E000E8008091E80080FFFCCF842F8068809330
:1007F000E3005BCF8091E80080FFFCCF8091030194
:100800008093F1008EEF8093E8004FCFE9012296AC
:10081000FE01859194916817790709F043CF9E01F5
:100820002E5F3F4FF901459154912E5F3F4FF901E3
:100830006491202F30E0912F80E0282B392B2F3F1F
:10084000310519F010F02FEF30E0261708F4622F71
:100850007EEF8091E800282F30E0C901857090700C
:10086000892BB9F322FD21CF262F613430F120E40A
:1008700080E090E0FA01E80FF91FE491E093F100C5
:1008800001962817B9F72150822F90E02F5F01962B
:10089000480F591F621B7093E8006623D1F620347D
:1008A000C1F203CF8091E80082FFFCCF8BEF8093F1
:1008B000E8008EEF8093E800F8CE6623C9F6EACF11
:1008C000ED012296FE01859194916817790709F050
:1008D000B6CEA5CFC5EBD0E0FE0185919491681707
:1008E000790709F49CCFFE013596B3CECCEBD0E06E
:1008F000FE01859194916817790709F490CFFE0164
:100900003596AFCEC3ECD0E09E01FE018591949167
:100910006817790709F483CF2B5F3F4FAACEE9010F
:100920002296FE01859194916817790709F0A8CE67
:1009300076CFE9012296FE01859194916817790797
:1009400009F0A7CE6CCF313091F0323009F438C0C5
:10095000333009F0A7CE8091E80080FFFCCF809172
:1009600001018093F1008EEF8093E8009ECE80918C
:10097000E80080FFFCCFE3EEF0E084918093F1008B
:10098000319684918093F100319684918093F100A7
:10099000319684918093F100319684918093F10097
:1009A000319684918093F100319684918093F10087
:1009B0003196E491E093F1008EEF8093E80075CEDC
:1009C0008091E80080FFFCCF809104018093F100CA
:1009D0008EEF8093E80069CE509304018EEF8093F0
:1009E000E80063CE86E091E06BEE70E043E050E01B
:1009F00000C0FB01DC0102C005900D924150504047
:080A0000D8F70895F894FFCF28
:020A08000301E8
:00000001FF
